:100000000C94821B0C94B31B0C94B31B0C94B31B69
:100010000C94B31B0C94B31B0C94B31B0C94B31B28
:100020000C94B31B0C94B31B0C94B31B0C94B31B18
:100030000C94B31B0C94B31B0C94B31B0C94B31B08
:100040000C94B31B0C948D520C94B31B0C94B31BE7
:100050000C94B31B0C94B31B0C94C04E0D947E1ADD
:100060000C94B31B0C9412AA0C94B31B0C94B31BEA
:100070000C94B31B0C94B31B0C94B31B0C94B31BC8
:100080000C94853D0C94B31B0C94B31B0C94B31BC4
:100090000C94B31B0C94B31B0C94B31B0C94B31BA8
:1000A0000C94B31B0C94B31B0C94573D0C94B31BD2
:1000B0000C94B31B0C94B31B0C94B31B0C94293DF0
:1000C0000C94B31B0C94B31B0C94B31B0C94B31B78
:1000D0000C94B31B0C94B31B0C94B31B0C94B31B68
:1000E0000C94B31B084AD73B3BCE016E84BCBFFDCA
:1000F000C12F3D6C74319ABD56833DDA3D00C77FF8
:1001000011BED9E4BB4C3E916BAAAABE0000008090
:100110003F05A84CCDB2D44EB93836A9020C50B91F
:10012000918688083CA6AAAA2ABE000000803F004B
:100130000C9484B80C94D9EA0C948E500C9475D716
:100140000C945CE60D944D0E0C949DF30D94AD0D46
:100150000C94A0C20C94A8210C946F500D94E20D45
:100160000C948DC30C9477500C9437320C947C50C3
:100170000C94C4AC0C9432F50C9464DB0C9409AC74
:100180000C9409320C9476480C944C500D94B10D9B
:100190000C944EE60C9477FE0C94CA1F0C94B3F6A4
:1001A0000D94B90D0D945B0D0C94A7AC0C94745088
:1001B0000C943EAC0C94F7BF0D94BC0D0C946E32B5
:1001C0000C94E3310D94B50D0D94C60D0C94E1AC77
:1001D0000C944FB10C94E0E70C9457F20C948232DB
:1001E0000C946C500C9446DD0C942D320C94F6ED6E
:1001F0000C9451C60C9441320D94E80D0C9421508E
:100200000C9450320C9434F80D94F2090C941B3277
:100210000C946AE60D94EC0D0C94FFB90D94C20D8C
:100220000C943C500C940FFB0C9413320C942CDD6A
:100230000C9478320C9463C50C94A4210C94B9EC02
:100240000C947BBE0C943FC70C9467500C944BEC01
:100250000D94CC0D0C9491C40D94E70D0C9419BD24
:100260000C94C3AD0C9464320D94D00D0C94FF31FA
:100270000D94D72D0C9423320C947BC10D94D40D86
:100280000D94DE0D0D94A70D0C9455F00C945DEDBE
:100290000C9427E40C94991E0C945A320C9485BB50
:1002A0000C9484500C9489B50C94F0310C9440E675
:1002B0000D94590D0D945C0D0C947F500C94C12B32
:1002C0000C94F5310D94B92D0C94524F0D94DA0D18
:1002D0000C949CD90C948AAC0C9414B70C94A52162
:1002E0000C946DAC4E414E494E495459494E46CD41
:1002F000CCCC3D0AD7233C17B7D13877CC2B3295DD
:1003000095E6241FB14F0A000020410000C84200BA
:10031000401C4620BCBE4CCA1B0E5AAEC59D744341
:100320004F4D4D554E49434154494F4E004452594B
:1003300052554E004552524F525300494E464F00BF
:100340004543484F001000C90210011C0140011331
:100350000170010B01B0010101F001FA005002F03F
:1003600000B002E8003003DE00D003D5009004CCDA
:10037000007005C300A006B9000008AF00B009A6D0
:1003800000D00B9C00600E92006011890000157F68
:100390000020197500C01D6B00A0226100B0275716
:1003A00000902C4E0000314400E0343A0010383107
:1003B00000903A2700603C1E00A03D1400803E0AD9
:1003C00000203F00000040EFFE4D4F52542E0053DE
:1003D000544F5050452E005072696E7465722073F0
:1003E000746F707065642064756520746F20657229
:1003F000726F72732E20466978207468652065726A
:10040000726F7220616E6420757365204D393939C1
:1004100020746F20726573746172742E2028546585
:100420006D70657261747572652069732072657391
:1004300065742E205365742069742061667465723A
:100440002072657374617274696E6729004E6F2043
:100450004C696E65204E756D6265722077697468AF
:1004600020636865636B73756D2C204C6173742019
:100470004C696E653A20004E6F20436865636B736C
:10048000756D2077697468206C696E65206E756D76
:100490006265722C204C617374204C696E653A2041
:1004A00000636865636B73756D206D69736D61744E
:1004B00063682C204C617374204C696E653A20008F
:1004C0004C696E65204E756D626572206973206E91
:1004D0006F74204C617374204C696E65204E756D8D
:1004E0006265722B312C204C617374204C696E65EF
:1004F0003A20004D313130004D38342058205920F9
:100500005A20450025692068657572657320256944
:10051000206D696E7574657300446F6E652070722E
:10052000696E74696E672066696C650020496E7635
:10053000616C69642065787472756465722000006E
:1005400000B9430080C5430000AF430000C8C100AC
:100550000018C2000000005761726E696E673A2091
:10056000486F6D696E672042756D702044697669C9
:10057000736F72203C203100205A3A200020593AF3
:10058000200042656420583A20005265762E20648F
:10059000616E732058592061762E5A005265762E6E
:1005A0002064616E732058592061762E5A002070A5
:1005B0006F736974696F6E206F7574206F66207237
:1005C000616E67652E003F50726F62652000202BC0
:1005D00000200A436F72726563746564204265642B
:1005E000204865696768742076732E204265642010
:1005F000546F706F6C6F67793A200A00202B0020CF
:1006000028302C30290A002020204F2D2D20465242
:100610004F4E54202D2D2B0A002020207C202020FE
:1006200020202020202020207C0A002020207C2048
:10063000202020282D29202020207C20540A002042
:1006400054207C20202020202020202020207C20BE
:10065000480A002046207C20282D29204E20282BC7
:1006600029207C20470A002045207C2020202020B3
:100670002020202020207C20490A00204C207C20A3
:10068000202020282B29202020207C20520A0020F6
:1006900020207C20202020202020202020207C0AB8
:1006A000002020202B2D2D2D204241434B202D2D8D
:1006B0002B0A00200A426564204865696768742037
:1006C000546F706F6772617068793A200A004D65E7
:1006D000616E206F662073616D706C656420706F51
:1006E000696E74733A200020643A200020623A2038
:1006F0000045716E20636F656666696369656E7437
:10070000733A20613A200028422961636B00284631
:1007100029726F6E74002852296967687400284C2A
:1007200029656674003F4E756D626572206F6620A4
:1007300070726F626564202850296F696E7473202F
:10074000697320696D706C61757369626C652028CE
:1007500032206D696E696D756D292E0A0052756EB5
:100760006E696E6720696E204452592D52554E2095
:100770006D6F646500473239204175746F204265A2
:1007800064204C6576656C696E670A003F285629BF
:100790006572626F7365204C6576656C20697320A5
:1007A000696D706C61757369626C652028302D34D9
:1007B000292E0044656C6574696F6E206661696CF2
:1007C00065642C2046696C653A200046696C65209A
:1007D00064656C657465643A006F70656E2066616F
:1007E000696C65642C2046696C653A20005374611D
:1007F0006E6461726420446576696174696F6E3AF3
:1008000020004D65616E3A20002020207369676DDD
:10081000613A2000206D65616E3A20002020207A28
:100820003A2000206F66200020207A3A2000793A92
:100830002000783A2000202020616E676C653A2005
:10084000005374617274696E6720726164697573B4
:100850003A2000506F736974696F6E696E67207417
:1008600068652070726F62652E2E2E0A003F4E75ED
:100870006D626572206F66206C65677320696E20FB
:100880006D6F76656D656E74206E6F7420706C612F
:10089000757369626C652028302D3135292E0A0068
:1008A000590058003F53616D706C652073697A651B
:1008B000206E6F7420706C61757369626C6520289E
:1008C000342D3530292E0A004D3438205A2D5072DF
:1008D0006F6265205265706561746162696C6974EC
:1008E0007920746573740A003F566572626F736590
:1008F000204C6576656C206E6F7420706C6175732A
:1009000069626C652028302D34292E0A0020403A77
:10091000002042403A00202F0020423A00202F00C1
:1009200020543A0043686175666665207465726D8F
:10093000696E6565003F0020573A00456E20636888
:1009400061756666652E2E2E004578706C6F726537
:1009500072203335302070726574652E00205A3A4B
:100960000020593A0020436F756E7420583A2000D9
:1009700020453A00205A3A0020593A00583A00528D
:1009800065706F732E2E2E005A20736F6E64652073
:10099000657874652E206C6974005A20736F6E64DC
:1009A0006520657874652E206C697400205A3A20A1
:1009B0000020593A200042656420583A20004578CA
:1009C000706C6F726572203335302070726574659B
:1009D0002E0052657072692E206465206C27696D47
:1009E00070722E00417474656E2E206465206C2731
:1009F0007574696C2E005445535400417563756ECF
:100A0000206D6F7576656D656E742E00456E642081
:100A100066696C65206C69737400426567696E2055
:100A200066696C65206C6973740053442070726948
:100A30006E74696E67206279746520004E6F742051
:100A40005344207072696E74696E67002569206D69
:100A5000696E2C2025692073656300456E206368EC
:100A600061756666652E2E2E004578706C6F726516
:100A700072203335302070726574652E006F6666A3
:100A80000040033B0334032D031F034445425547F5
:100A90003A004D4F52542E004D3131332053006FE8
:100AA0006B004368617566666520706C6174656192
:100AB00075207465726D696E6565003F0020573A58
:100AC00000506C617465617520656E2063686175A6
:100AD0006666652E2E2E004578706C6F72657220EA
:100AE0003335302070726574652E004578706C6FF8
:100AF000726572203335302041727265742E004663
:100B000049524D574152455F4E414D453A4D6172F4
:100B10006C696E20312E312E302D524336202847FD
:100B200069746875622920534F555243455F434F9E
:100B300044455F55524C3A68747470733A2F2F676E
:100B400069746875622E636F6D2F4D61726C696E8A
:100B50004669726D776172652F4D61726C696E20A6
:100B600050524F544F434F4C5F56455253494F4E8E
:100B70003A312E30204D414348494E455F5459503B
:100B8000453A4578706C6F72657220333530204578
:100B9000585452554445525F434F554E543A3120B4
:100BA000555549443A63656465326132662D343186
:100BB00061322D343734382D396231322D63353579
:100BC0006336326633363766660A007A5F6D696E61
:100BD0003A2000795F6D696E3A2000785F6D696E2A
:100BE0003A20004D31343520533C696E6465783EBF
:100BF000206F7574206F662072616E6765202830E3
:100C00002D31290053657474696E672054726176C2
:100C1000656C20416363656C65726174696F6E3ADF
:100C2000200053657474696E672052657472616345
:100C30007420416363656C65726174696F6E3A20FC
:100C40000053657474696E67205072696E74204138
:100C50006363656C65726174696F6E3A20005365F9
:100C60007474696E67205072696E7420616E6420BE
:100C700054726176656C20416363656C6572617462
:100C8000696F6E3A20004572723A20546F6F206689
:100C900061722100546F6F206661722066726F6D01
:100CA000207265666572656E636520706F696E742B
:100CB00000446563616C61676573206170706C6985
:100CC00071756573003A20007A5F6D61783A200093
:100CD0007A5F6D696E3A2000446563616C61676597
:100CE000205A00220A00556E6B6E6F776E20636F7C
:100CF0006D6D616E643A202200526573656E643AD0
:100D000020006F6B0020746F6F206C6F6E67206522
:100D10007874727573696F6E2070726576656E7423
:100D200065640020636F6C64206578747275736904
:100D30006F6E2070726576656E74656400457272C0
:100D40006575722064652063686175666665004834
:100D5000656174696E67206661696C6564004D4FFA
:100D600052542E004D4F52542E00627573793A2022
:100D700070617573656420666F7220696E7075743A
:100D800000627573793A2070617573656420666FCF
:100D900072207573657200627573793A2070726F94
:100DA00063657373696E67005072696E7465722053
:100DB00068616C7465642E206B696C6C28292063F3
:100DC000616C6C656421000000C8C1000018C2009D
:100DD0000000000000A0400000A040000000400013
:100DE00080C5430080D8430000AF43FFFFFF7C3C39
:100DF0003E5E2B3D3F2F5B5D3B2C2A225C00457203
:100E0000726F722077726974696E6720746F204503
:100E10004550524F4D21002062797465732900536B
:100E2000657474696E67732053746F7265642028EB
:100E30000020627974657329002073746F72656491
:100E40002073657474696E67732072657472696566
:100E500076656420280048617264636F646564206D
:100E600044656661756C742053657474696E67734C
:100E7000204C6F616465640020204D383531205A64
:100E8000005A2D50726F6265204F6666736574203C
:100E9000286D6D293A0020204D323030204430003A
:100EA00020204D3230302044002044697361626C50
:100EB00065640046696C616D656E74207365747459
:100EC000696E67733A00204C0020430020440020E4
:100ED000490020204D3330312050005049442073C8
:100EE000657474696E67733A0020460020420020E2
:100EF000204D313435205331204800204600204217
:100F00000020204D3134352053302048004D61748D
:100F1000657269616C2068656174757020706172BA
:100F2000616D65746572733A00205A002059002083
:100F3000204D323036205800486F6D65206F666650
:100F400073657420286D6D293A00204500205A00F1
:100F500020580020420020540020204D32303520FF
:100F60005300416476616E636564207661726961E5
:100F7000626C65733A20533D4D696E206665656409
:100F80007261746520286D6D2F73292C20543D4D9E
:100F9000696E2074726176656C2066656564726145
:100FA000746520286D6D2F73292C20423D6D696E6C
:100FB000696D756D207365676D656E742074696DFC
:100FC0006520286D73292C20583D6D6178696D75F9
:100FD0006D205859206A65726B20286D6D2F73291A
:100FE0002C20205A3D6D6178696D756D205A206AFC
:100FF00065726B20286D6D2F73292C2020453D6D67
:101000006178696D756D2045206A65726B20286D69
:101010006D2F73290020540020520020204D3230C3
:1010200034205000416363656C65726174696F6E52
:10103000733A20503D7072696E74696E672C20524D
:101040003D7265747261637420616E6420543D74F6
:10105000726176656C00204500205A0020590020FE
:10106000204D3230312058004D6178696D756D200A
:10107000416363656C65726174696F6E20286D6D84
:101080002F7332293A00204500205A0020590020B1
:10109000204D3230332058004D6178696D756D20D8
:1010A00066656564726174657320286D6D2F7329A0
:1010B0003A00204500205A0020590020204D3932A6
:1010C00020580053746570732070657220756E69C6
:1010D000743A0020746F6F206C6F6E6720657874AF
:1010E000727573696F6E2070726576656E74656473
:1010F0000020636F6C6420657874727573696F6E1D
:101100002070726576656E7465640024F4D4305086
:10111000C38E20C2A24017828B7011127A910D816A
:101120006CD90AA861E108C7586607615143061ED9
:101130004B5D05C145A7041A411104093D9803718F
:101140003931034036DB0265339102D430540280DA
:101150002E1D02632CEE01752AC501B028A00110D6
:101160002781018F2564012B244B01E0223401AC3F
:10117000211F018D200D01801FFC00841EED0097B2
:101180001DDF00B81CD200E61BC600201BBC00649B
:101190001AB200B219A8000A19A0006A189900D161
:1011A00017910040178B00B516840031167E00B3EE
:1011B0001579003A157300C7146F0058146A00EED1
:1011C0001366008813630025135E00C7125B006C72
:1011D00012570015125400C111510070114F002117
:1011E000114B00D61049008D1047004610440002F4
:1011F000104200C00F4000800F3E00420F3C00062E
:101200000F3B00CB0E3800930E37005C0E350027E5
:101210000E3400F30D3200C10D3100900D3000602E
:101220000D2E00320D2D00050D2C00D90C2B00AE1B
:101230000C2900850C29005C0C2700350C27000EBA
:101240000C2600E80B2400C40B2400A00B23007D17
:101250000B23005A0B2100390B2100180B2000F83A
:101260000A1F00D90A1E00BB0A1E009D0A1D00802D
:101270000A1D00630A1C00470A1B002C0A1B0011F0
:101280000A1A00F7091A00DD091900C4091900AB90
:10129000091900920917007B091800630917004C0F
:1012A00009160036091600200916000A091500F56E
:1012B000081500E0081400CC081400B8081400A4B5
:1012C000081400900813007D0812006B08130058E2
:1012D00008120046081200340811002308110012F9
:1012E00008110001081100F0071000E0071000D0FD
:1012F000071000C0071000B0070F00A107100091F1
:10130000070E0083070F0074070F0065070E0057D4
:10131000070E0049070E003B070D002E070E0020A8
:10132000070D0013070D0006070D00F9060C00ED70
:10133000060D00E0060C00D4060C00C8060C00BC2C
:10134000060C00B0060C00A4060B0099060C008DDC
:10135000060B0082060B0077060B006C060B006183
:10136000060A0057060B004C060A0042060A00381F
:10137000060A002E060A0024060A001A060A0010B1
:1013800006090007060A00FD050900F4050900EB3F
:10139000050900E2050900D9050900D0050900C7C3
:1013A000050900BE050900B5050800AD050800A542
:1013B0000509009C050800940508008C05080084B8
:1013C0000508007C050800740508006C0507006529
:1013D0000508005D050700560508004E0507004793
:1013E0000507004005080038050700310507002AF9
:1013F000050700230507001C050600160507000F5A
:101400000507000805060002050700FB040600F5B5
:10141000040700EE040600E8040600E2040700DB0F
:10142000040600D5040600CF040600C9040600C364
:10143000040600BD040600B7040600B1040500ACB4
:10144000040600A6040600A00405009B04060095FF
:10145000040500900406008A040500850405008048
:101460000406007A04050075040500700405006B8D
:1014700004050066040500610405005C04050057CE
:10148000040500520405004D04050048040500430E
:101490000405003E0404003A04050035040500304C
:1014A0000404002C04050027040400230405001E86
:1014B0000404001A04040016040500110404000DBD
:1014C000040400090405000404040000040400FCF2
:1014D000030400F8030400F4030400F0030400EC28
:1014E000030400E8030400E4030400E0030400DC58
:1014F000030400D8030400D4030400D0030400CC88
:10150000030400C8030300C503030024F404D92026
:101510001BC40C5C0E9804C4095F0265077101F4DA
:1015200005F900FB04B30048048700C103690058B3
:1015300003550003034500BE023A00840231005304
:10154000022A002902250004022000E4011C00C830
:10155000011900AF011700980114008401130071F4
:101560000110006101100051010E0043010D003611
:10157000010B002B010B0020010B00150109000CD1
:1015800001090003010800FB000800F3000800EB5C
:10159000000700E4000600DE000600D8000600D2C6
:1015A000000600CC000500C7000500C2000500BD14
:1015B000000400B9000400B5000400B1000400AD4F
:1015C000000400A9000400A5000300A20003009F7E
:1015D0000004009B000300980003009500020093A4
:1015E000000300900003008D0002008B00030088C0
:1015F0000002008600020084000300810002007FD8
:101600000002007D0002007B0002007900020077EA
:1016100000010076000200740002007200010071F7
:101620000002006F0002006D0001006C0002006A01
:10163000000100690002006700010066000100650A
:10164000000100640002006200010061000100600E
:101650000001005F0002005D0001005C0001005B12
:101660000001005A00010059000100580001005714
:101670000001005600010055000100540001005314
:101680000000005300010052000100510001005011
:101690000001004F0001004E0000004E0001004D0F
:1016A0000001004C0001004B0000004B0001004A0B
:1016B0000001004900010048000000480001004707
:1016C0000001004600000046000100450000004502
:1016D00000010044000100430000004300010042FB
:1016E00000000042000100410000004100010040F4
:1016F0000001003F0000003F0001003E0000003EEE
:101700000001003D0000003D0001003C0000003CE5
:101710000000003C0001003B0000003B0001003ADB
:101720000000003A000100390000003900010038D3
:1017300000000038000000380001003700000037CA
:1017400000010036000000360000003600010035C0
:1017500000000035000000350001003400000034B6
:1017600000000034000100330000003300000033AB
:1017700000010032000000320000003200010031A0
:101780000000003100000031000100300000003096
:10179000000000300001002F0000002F0000002F8B
:1017A0000000002F0001002E0000002E0000002E7F
:1017B0000001002D0000002D0000002D0000002D74
:1017C0000001002C0000002C0000002C0000002C68
:1017D0000001002B0000002B0000002B0000002B5C
:1017E0000001002A0000002A0000002A0000002A50
:1017F0000001002900000029000000290000002944
:101800000000002900010028000000280000002836
:101810000000002800000028000100270000002729
:10182000000000270000002700000027000100261C
:101830000000002600000026000000260000002610
:101840000001002500000025000000250000002503
:1018500000000025000000250001002400000024F5
:1018600000000024000000240000002400010023E8
:1018700000000023000000230000002300000023DC
:1018800000000023000000230001002200000022CD
:1018900000000022000000220000002200000022C0
:1018A00000010021000000210000002100000021B3
:1018B00000000021000000210000002100010020A4
:1018C0000000002000000020000000200000002098
:1018D0000000002000000020000000200001001F88
:1018E0000000001F0000001F0000001F0000001F7C
:1018F0000000001F0000001F0001001E0000001E6D
:101900000000001E0000001E0000004D383420586A
:101910002059205A20450023646566696E652020A1
:1019200044454641554C545F4B6420002364656632
:10193000696E65202044454641554C545F4B6920F3
:101940000023646566696E65202044454641554C18
:10195000545F4B702000504944204175746F74757A
:101960006E652066696E69736865642120507574C0
:1019700020746865206C617374204B702C204B6957
:1019800020616E64204B6420636F6E7374616E74AB
:10199000732066726F6D2062656C6F7720696E745C
:1019A0006F20436F6E66696775726174696F6E2E22
:1019B0006800504944204175746F74756E652066E7
:1019C00061696C6564212074696D656F7574005080
:1019D0004944204175746F74756E65206661696C49
:1019E0006564212054656D7065726174757265203F
:1019F000746F6F206869676800204B643A2000208C
:101A00004B693A2000204B703A200020436C6173F0
:101A10007369632050494420002054753A20002007
:101A20004B753A2000206D61783A2000206D696E78
:101A30003A200020643A200020626961733A200055
:101A4000626564002C2073797374656D2073746F04
:101A50007070656421204865617465725F49443A1D
:101A60002000000135012001330140012C016001FB
:101A70002501A0011C01D001100110020A01400241
:101A80000401A002FC00E002F7000003F4003003B0
:101A9000F100E003E7009004DE00E004DB007005E5
:101AA000D4002006CF00D006C9006007C50030086A
:101AB000BF001009BA00000AB500100BAF00B00C4F
:101AC000A900E00DA40000109C00B0119700801345
:101AD000910070158C0090178300D0197D00601C58
:101AE0007700001F710090216C0020246600B02652
:101AF000610020295C00702B5700F02D5100503000
:101B00004B0080324600C034400040363B00C037B6
:101B1000360020393100703A2A00703B2600703CB4
:101B20002000F03C1C00803E1400203F0A000040D2
:101B3000EFFE454D42414C4C454D454E54205448D6
:101B400045524D4951554500546865726D616C2090
:101B500052756E61776179004572723A2054454D35
:101B6000502E204D4158004D415854454D50207441
:101B70007269676765726564004572723A20544500
:101B80004D502E204D494E004D494E54454D50204C
:101B9000747269676765726564004572723A2054B1
:101BA000454D502E204D494E20504C4154454155F5
:101BB000004D494E54454D502074726967676572F7
:101BC0006564004572723A2054454D502E204D41B7
:101BD0005820504C4154454155004D415854454DB5
:101BE000502074726967676572656400FF8007F84A
:101BF00000FE000FC01C00700780FFF00FF803FF0D
:101C0000807FF01E00F00780FFF80FFC0FFF80FFC1
:101C1000FC1F01F00FC0E03C1FFC0F0001E01E1F85
:101C200003F00FC0E01E1FFE1E0001C00E1F87F054
:101C30001CE0E00E3FFE1C0001C00E1FCF701CE038
:101C4000E00E3FFF3C000380071DEE703870E00E91
:101C50007FFF380FF380071CFE703870E00E7F7F27
:101C6000B80FF380071C7C707838E00EFF3FBC0093
:101C70007380071C38707038E00EFE3FDC0071C0C6
:101C80000E1C1070701CE01DFE3FDE00E1E01E1C0B
:101C90000070E01CE07DFC1FEF81E0F03C1C007058
:101CA000E01EFFFBFC1FE7FFC07FF81C0071CFFEAA
:101CB000FFE3FC0FE3FF803FF01C0071CFFFFC034C
:101CC000F80FF07C0007801C00718FFF0007F807F9
:101CD000F00000000000000000000007F007F8001E
:101CE0000000000000000000000FF003F80000FFFB
:101CF000FFFFFFFFFFFF000FE003FC001380000069
:101D0000000003FF001FE001FC00060000000000CF
:101D100001FF000FC001FE0014000000000000FFE2
:101D2000000FC000FE0094000000000C007F0007C0
:101D30008000FF01E41E7800000CC03F000380001B
:101D40007F00043FFC00000CC01F000300007F80E8
:101D5000F473CE08030C018F00C100003F81546171
:101D6000863E0FCCC7E700E000003FC05461867F8D
:101D70001FCCCFF301E000001FC0246186E39CEC80
:101D8000CE7100F000001FE0846186C1986CCC31F8
:101D9000007800000FE1546186C1980CCC31007CC2
:101DA00000000FF1546186C1980CCC3100783FFFE0
:101DB000FFF0F46186E1980CCC3100787FFFFFFAE8
:101DC0000461867DF80EFC3100F07FFFFFFA84612C
:101DD000861DF806FC3300F0FFFFFFFDF600000053
:101DE0000000000201E0FFFFFFFC03000000000014
:101DF000000E01E0FFFFFFFE01FFFFFFFFFFFFF806
:101E00005A00590020003F0058000920000000003F
:101E10000000000000000000007FFFE00000000064
:101E200000000000000000007000E0000000000062
:101E30000000000000000061F860000000000000E9
:101E400000000000000041F8200000000000000039
:101E5000000000000040F020000000000000000032
:101E600000000000406020000000000000000000B2
:101E70000000005801A07F80000000000000004129
:101E800004005C63A0FFC00000000000000020828E
:101E9000005EF7A0FFC000000000000000208200EC
:101EA0005EF7A0FFC0000000000000004104005CDD
:101EB00063A07F800000000000000082080058013D
:101EC000A07F80000000000000010410004060209E
:101ED000FFC00000000000000104100040F020FFDF
:101EE000C00000000000000082080041F820FFC090
:101EF0000000000000000041040061F8603F0000A5
:101F00000000000000000000007000E01E00000063
:101F10000000000001FFFF807FFFE00C00000000D8
:101F200000000001FFFF8000000000000000000032
:101F30000000000000007FFFE00000000000000043
:101F400000000000007000E0000000000000000041
:101F500000000000630C60000000000000000000B2
:101F6000000000470E2000000000000000000000FC
:101F700000004F0F200000000000000000000000E3
:101F8000005F0FA000000000000000000000000043
:101F90005E07A07F800000000000000041040040B8
:101FA0006020FFC00000000000000020820040F020
:101FB00020FFC00000000000000020820040F02050
:101FC000FFC0000000000000004104004060207FCE
:101FD00080000000000000008208005E07A07F80F3
:101FE000000000000000010410005F0FA0FFC0000F
:101FF0000000000000010410004F0F20FFC000008F
:102000000000000000820800470E20FFC000000012
:1020100000000000410400630C603F00000000006D
:102020000000000000007000E01E00000000000042
:102030000001FFFF807FFFE00C00000000000000B7
:1020400001FFFF8000000050617320646520636120
:1020500072746500496D70722E20646570756973C5
:10206000205344004172726574657220696D70720C
:102070002E0052657072656E64726520696D7072B3
:102080002E00496E746572726F6D70726520696D95
:1020900070722E00436F6E74726F6C6572005072B6
:1020A000657061726572005265676C657200537588
:1020B000727665696C6C65720042616279737465F1
:1020C0007070696E67205800426162797374657040
:1020D00070696E672059004261627973746570702F
:1020E000696E67205A004261627973746570205A84
:1020F00000426162797374657020590042616279AF
:1021000073746570205800466C757800466C75785D
:1021100000566974652E2076656E74696C6174650D
:10212000757200566974652E2076656E74696C61EF
:102130007465757200506C617465617500506C61F6
:1021400074656175004275736500427573650020A2
:102150005669746573736500205669746573736599
:10216000004D656E75207072696E636970616C00F8
:1021700050726563682E20504C4120506C6174652C
:102180006175005072656368617566666167652098
:10219000504C4100507265706172657200507265FA
:1021A00063682E2041425320506C61746561750054
:1021B0005072656368617566666167652041425368
:1021C00000507265706172657200473930004732A5
:1021D00038004731205A31352046393030300047F9
:1021E00031205A2D31352046323030004739310008
:1021F000473932205A323000473120582D323420AE
:10220000592D3134204639303030004731205A358D
:10221000204639303030004D313137205061726105
:102220006C6C656C69736D652058004739300047E8
:102230003238004D3834004D313137204F726967E4
:10224000696E65204D616368696E65004F707469E1
:102250006F6E73206176616E63656573004D383013
:1022600000416C6C756D657220616C696D2E004D5E
:10227000383100457465696E64726520616C696D02
:102280002E00526566726F69646972005265676CF0
:102290002E205A204F666673657400506172726119
:1022A0006C6C656C20580050726563686175666679
:1022B00061676520504C41004465706C61636572D4
:1022C00020756E20617865004D656E7520707269AD
:1022D0006E636970616C004D343238004D383400E3
:1022E00041727265746572206D6F746575727300EA
:1022F0005265676C657220646563616C2E206F7235
:102300006967696E650050726563686175666661CC
:10231000676520414253004732380A473239004747
:102320003239005265676C2E204E69762E20506C33
:10233000617465617500473238004F726967696E74
:1023400065206175746F2E004D656E752070726921
:102350006E636970616C004465706C2E2058004497
:1023600065706C2E2059004465706C2E205A004513
:1023700078747275646572004578747275646572FC
:10238000004465706C2E205A004465706C2E2059F4
:10239000004465706C2E2058004465706C61636564
:1023A0007220756E20617865004F4B00202020530D
:1023B00061757665676172646573002020205061E5
:1023C00072616D65747265730020202050617469BC
:1023D000656E74657A2E2E2E004730205A300047E5
:1023E0003238004D383400707569732076616C693D
:1023F00064657A004465706C2E205A00656E207208
:1024000065676C616E74206C276F66667365740017
:1024100050696E63657A206C6120666575696C6CC5
:1024200065004F4B00707569732061707075796538
:102430007A20737572204F4B00656E20646573734C
:102440006F7573206465206C612062757365004749
:102450006C697373657A20756E6520666575696C45
:102460006C65004730205A3000473238004D383410
:1024700000473238004D383400446563616C616751
:1024800065205A00446563616C616765205A00529B
:1024900065696E697469616C697365720050726513
:1024A0007061726572004465706C2E20302E316D43
:1024B0006D004465706C2E20316D6D004465706C4C
:1024C0002E2031306D6D0050726570617265720042
:1024D00052657374617572657220646566617574A6
:1024E00073004C69726520636F6E666967005361A3
:1024F0007576657220636F6E6669670046696C6108
:102500006D656E74004D6F7576656D656E74005403
:10251000656D7065726174757265004D656E7520CC
:102520007072696E636970616C005265676C2E2011
:1025300070726563682E20414253005265676C2EAD
:102540002070726563682E20504C41005049442D24
:1025500043005049442D43005049442D4400504904
:10256000442D44005049442D49005049442D490010
:102570005049442D50005049442D500008204661D8
:102580006374657572000820466163746575720036
:1025900008204D61780008204D61780008204D69C1
:1025A0006E0008204D696E004172726574004D61C5
:1025B00072636865200054656D702E204175746FDC
:1025C0002E00566974652E2076656E74696C617490
:1025D00065757200566974652E2076656E74696C37
:1025E000617465757200506C617465617500506C42
:1025F00061746561750042757365004275736500AD
:10260000436F6E74726F6C6572005361757665729C
:1026100020636F6E66696700506C61746561750058
:10262000506C617465617500427573650042757325
:102630006500566974652E2076656E74696C6174E8
:1026400065757200566974652E2076656E74696CC6
:1026500061746575720054656D7065726174757230
:10266000650053617576657220636F6E66696700F9
:10267000506C617465617500506C617465617500C2
:1026800042757365004275736500566974652E2046
:1026900076656E74696C61746575720056697465EF
:1026A0002E2076656E74696C617465757200546570
:1026B0006D706572617475726500457061732F6D20
:1026C0006D00457061732F6D6D005A7061732F6DD1
:1026D0006D005A7061732F6D6D00597061732F6DAD
:1026E0006D00597061732F6D6D00587061732F6D9F
:1026F0006D00587061732F6D6D00412D4465706CD5
:102700002E00412D4465706C2E00412D726574724F
:1027100061637400412D7265747261637400416D70
:102720006178204500416D6178204500416D6178F8
:10273000205A00416D6178205A00416D617820591E
:1027400000416D6178205900416D61782058004149
:102750006D6178205800566465706C206D696E005C
:10276000566465706C206D696E00566D696E00561A
:102770006D696E00566D61784500566D6178450053
:10278000566D61785A00566D61785A00566D6178C1
:102790005900566D61785900566D61785800566D34
:1027A0006178580056652D6A65726B0056652D6A12
:1027B00065726B00567A2D6A65726B00567A2D6AC7
:1027C00065726B005678792D6A65726B0056787960
:1027D0002D6A65726B00416363656C0041636365DC
:1027E0006C00446563616C616765205A00446563F1
:1027F000616C616765205A00436F6E74726F6C651F
:1028000072004469616D2E2046696C2E0044696136
:102810006D2E2046696C2E004172726574004D6108
:102820007263686520004520656E206D6D3300433E
:102830006F6E74726F6C65720043616E6E6F7420A0
:10284000656E746572207375626469723A20000265
:102850002E2E004D656E75207072696E6369706111
:102860006C004361727465207265746972656500FD
:10287000436172746520696E73657265650000005E
:102880002100240027002A002D0030003300010120
:102890000000040107010A010000220025002800B1
:1028A0002B002E0031003400020100000501080158
:1028B0000B01000020002300260029002C002F001F
:1028C00032000001000003010601090105050505AC
:1028D000070508080808020202020A0A0808040498
:1028E00004040101010101010101030303030303C6
:1028F0000303040707070C0C0C0C0C0C0C0C020255
:10290000020206060606060606060B0B0B0B0B0B51
:102910000B0B0102102020080810204010204080DE
:102920000201020108040201010204081020408093
:102930008040201008040201800402018040201021
:10294000080402010804020101020408102040806A
:10295000010204081020408000000A0B02090C0D3F
:102960000E08070304010000000000000000000042
:102970000000000000000000000000000000000057
:102980000000000012111000000000000000000014
:1029900000000000000000000000000000002020F7
:1029A000506C616E6E6572427566666572427974CE
:1029B00065733A20002046726565204D656D6F7223
:1029C000793A20004A756E2032322032303230009F
:1029D000436F6D70696C65643A2000286E6F6E6598
:1029E0002C2064656661756C7420636F6E66696720
:1029F0002900207C20417574686F723A20003230C3
:102A000031362D30342D32342031323A30300020FE
:102A10004C61737420557064617465643A200020C1
:102A2000312E312E302D524336004D61726C696E5D
:102A30000020536F66747761726520526573657408
:102A400000205761746368646F6720526573657412
:102A5000002042726F776E206F7574205265736527
:102A600074002045787465726E616C2052657365E0
:102A70007400506F776572557000737461727400E2
:102A80006572726F722077726974696E6720746FF5
:102A90002066696C6500456E6473746F70732025E1
:102AA0006320256320256320256300205A3A0020F7
:102AB000593A0020583A00656E6473746F70732041
:102AC0006869743A2000446F6E6520736176696EA0
:102AD000672066696C652E004D3239005772697443
:102AE000696E6720746F2066696C653A20002E0A53
:102AF000006F70656E206661696C65642C204669A4
:102B00006C653A20002E0A006F70656E2066616960
:102B10006C65642C2046696C653A200046696C65DA
:102B20002073656C6563746564002053697A653A47
:102B3000200046696C65206F70656E65643A200000
:102B40006F70656E206661696C65642C2046696CE7
:102B5000653A20004E6F772066726573682066695B
:102B60006C653A20004E6F7720646F696E6720664F
:102B7000696C653A20002220706F7300222070611A
:102B800072656E743A2200535542524F5554494E65
:102B9000452043414C4C207461726765743A2200B1
:102BA0004D4F52542E00747279696E6720746F20F5
:102BB00063616C6C207375622D67636F646520665A
:102BC000696C6573207769746820746F6F206D611C
:102BD0006E79206C6576656C732E204D4158206CA3
:102BE0006576656C2069733A0053442063617264B2
:102BF000206F6B006F70656E526F6F742066616935
:102C00006C656400766F6C756D652E696E697420F5
:102C10006661696C6564004572726F723A00534474
:102C200020696E6974206661696C004D3234004D14
:102C30003233202573006175746F25692E67002279
:102C400000656E7175657565696E67202200656344
:102C5000686F3A0000060900FE070192032120FF79
:102C6000FF08FF07FF00000006000001070706023B
:102C70000080808080800080030202060105A0A001
:102C80000507070600005050F850F8505005070798
:102C90000600002078A07028F02005070706000035
:102CA000C0C810204098180507070600006090A0D3
:102CB00040A89068020303060104C0408003070790
:102CC00006010020408080804020030707060100A5
:102CD0008040202020408005050506000120A870C6
:102CE000A8200505050600012020F8202002030386
:102CF0000602FFC04080050101060003F80202023F
:102D0000060200C0C005050506000108102040802D
:102D10000507070600007088888888887003070701
:102D200006010040C040404040E0050707060000A3
:102D3000708808708080F8050707060000F81020EA
:102D4000100808F005070706000010305090F81032
:102D500010050707060000F880F0080888700507CE
:102D600007060000708080F088887005070706005D
:102D700000F80810202020200507070600007088B2
:102D800088708888700507070600007088887808B2
:102D90000870020505060200C0C000C0C002060699
:102DA0000602FFC0C000C0408004070706000010F4
:102DB000204080402010050303060002F800F804BC
:102DC0000707060100804020102040800507070605
:102DD000000070880810200020050707060000701A
:102DE000880868A8A870050707060000708888F89A
:102DF000888888050707060000F08888F08888F032
:102E00000507070600007088808080887005070726
:102E1000060000F08888888888F00507070600000B
:102E2000F88080F08080F8050707060000F88080B1
:102E3000F0808080050707060000708880B88888C9
:102E400070050707060000888888F88888880107C9
:102E500007060200808080808080800507070600CA
:102E600000381010101090600507070600008890C9
:102E7000A0C0A090880507070600008080808080A1
:102E800080F805070706000088D8A8888888880584
:102E900007070600008888C8A898888805070706DD
:102EA000000070888888888870050707060000F091
:102EB0008888F08080800507070600007088888871
:102EC000A89068050707060000F08888F0A09088A1
:102ED000050707060000788080700808F0050707DE
:102EE000060000F82020202020200507070600000B
:102EF0008888888888887005070706000088888881
:102F0000888850200507070600008888888888A8D8
:102F1000500507070600008888502050888805075C
:102F20000706000088888850202020050707060033
:102F300000F80810204080F8030707060100E08031
:102F400080808080E0050505060001804020100893
:102F5000030707060100E02020202020E0050303EE
:102F6000060004205088050101060000F802020254
:102F7000060205804005050506000070087888787F
:102F80000507070600008080B0C88888F0050505A1
:102F9000060000708080887005070706000008089A
:102FA00068988888780505050600007088F88070A4
:102FB0000507070600003048E0404040400506068F
:102FC0000600FF70888878087005070706000080F3
:102FD00080B0C888888801070706020080008080CA
:102FE0008080800308080601FF200020202020A008
:102FF00040040707060000808090A0C0A09003074F
:1030000007060100C04040404040E00505050600BD
:1030100000D0A8A8A8A8050505060000B0C88888A3
:103020008805050506000070888888700506060674
:1030300000FFF08888F080800506060600FF78888B
:1030400088780808050505060000B0C8808080055E
:10305000050506000070807008F0040707060000F0
:103060004040E04040403005050506000088888863
:103070009868050505060000888888502005050524
:103080000600008888A8A85005050506000088509D
:103090002050880506060600FF8888887808700595
:1030A0000505060000F8102040F803070706010098
:1030B00020404080404020010707060200808080B9
:1030C0008080808003070706010080404020404048
:1030D0008005020206000268900000000600000061
:1030E00000000600000000000600000000000600CE
:1030F00000000000060000000000060000000000C4
:1031000006000000000006000000000006000000AD
:10311000000006000000000006000000000006009D
:103120000000000006000000000006000000000093
:10313000060000000000060000000000060000007D
:10314000000006000000000006000000000006006D
:103150000000000006000000000006000000000063
:10316000060000000000060000000000060000004D
:10317000000006000000000006000000000006003D
:103180000000000006000000000006000000000033
:10319000060000000000060000000000060000001D
:1031A0000000060000010707060200800080808002
:1031B00080800507070600002070A8A0A8702005E1
:1031C0000707060000304040E04050A8050505060E
:1031D000000088705070880507070600008850209E
:1031E000F820F82001070706020080808000808018
:1031F00080050808060000304820505020906003E9
:103200000101060107A0050707060000F888B8B805
:10321000B888F8050707060001700878887800F874
:103220000505050600012850A050280503030600E7
:1032300001F8080802020206020640800507070698
:103240000000F888A88898A8F8050101060006F88B
:103250000404040600036090906005070706000060
:103260002020F8202000F8040505060003609020C7
:1032700040F0030505060003E020E020E002020222
:1032800006020640800508080600FF88888888989E
:10329000E8808005070706000078989878181818C5
:1032A000020202060202C0C00202020602FF4080C1
:1032B00003050506000340C04040E005070706007F
:1032C00001708888887000F8050505060001A05087
:1032D0002850A00507070600008890A858B80808DD
:1032E0000507070600008890B848982038050808A8
:1032F000060000C040C048D8380808050707060087
:10330000002000204080887005080806000040204A
:10331000007088F8888805080806000010200070F2
:1033200088F888880508080600002050007088F892
:1033300088880508080600006890007088F888886A
:103340000508080600005000708888F8888805087D
:10335000080600002050207088F8888805070706B6
:1033600000003860A0B8E0A0B80508080600FF70AB
:1033700088808088702060050808060000402000D2
:10338000F880F080F8050808060000081000F880B2
:10339000F080F8050808060000205000F880F08052
:1033A000F80507070600005000F880F080F80308D1
:1033B00008060100804000E0404040E003080806A5
:1033C0000100204000E0404040E003080806010002
:1033D00040A000E0404040E0030707060100A000D5
:1033E000E0404040E0050707060000704848E84814
:1033F000487005080806000068900088C8A89888EA
:103400000508080600004020708888888870050834
:103410000806000010207088888888700508080653
:103420000000205000708888887005080806000099
:1034300068900070888888700508080600005000B1
:10344000708888888870050505060001885020501E
:10345000880508080600FF1070A8A8A8A8704005F5
:1034600008080600004020888888888870050808B9
:1034700006000010208888888888700508080600E3
:1034800000205000888888887005080806000050D1
:103490000088888888887005080806000010208841
:1034A00050202020200509090600FFC04070484830
:1034B000704040E00408080601FF609090A09090E2
:1034C000E080050808060000402000700878887831
:1034D00005080806000010200070087888780508A4
:1034E0000806000020500070087888780508080653
:1034F00000006890007008788878050707060000CB
:1035000050007008788878050808060000205020D0
:103510007008788878050606060000D02878A0A8EC
:10352000500506060600FF708088702060050808B8
:103530000600004020007088F8807005080806002A
:10354000001020007088F880700508080600002030
:1035500050007088F8807005070706000050007062
:1035600088F8807003080806010080400040C040D1
:1035700040E003080806010020400040C04040E051
:1035800003080806010040A00040C04040E00307D7
:1035900007060100A00040C04040E0050707060004
:1035A00000A040A010788870050808060000689008
:1035B00000B0C88888880508080600004020007010
:1035C0008888887005080806000010200070888828
:1035D00088700508080600002050007088888870F0
:1035E0000508080600006890007088888870050744
:1035F00007060000500070888888700505050600E1
:10360000012000F800200507070600FF1070A8A899
:10361000A8704005080806000040200088888898A7
:10362000680508080600001020008888889868054A
:103630000808060000205000888888986805070759
:10364000060000500088888898680509090600FF70
:10365000102000888888F808700407070601FFC05A
:103660004060506040E00508080600FF5000888870
:103670008878087000060900FE00000000000109BB
:103680000008FE000005080806000040F0C8888811
:10369000987810050808060000C0F888888888888F
:1036A000F80505050600012030F830200508080659
:1036B00000002070F820202020E00509090600FF06
:1036C0002070A8A8B8888870200509090600FFE0C6
:1036D00080C0B0A8283028280509090600FFF8A8EE
:1036E0008888888888A8F8050A0A0600FE205050B5
:1036F000505088A8A8887003030306000340A04028
:103700003801620111241FBECFEFD1E2DEBFCDBF71
:1037100000E00CBF14E0A0E0B2E0E4E3F2E802E075
:103720000BBF02C007900D92A83FB107D9F726E161
:10373000A8EFB4E001C01D92AB3EB207E1F71BE178
:10374000C1E8DBE100E006C021970109802FFE01FE
:103750000F942D40C038D10780E00807A9F70F94D7
:10376000812E0D9408410C94000011982FB787FD0D
:103770005DC0F894909102019E7F909302012FBF4B
:10378000119A11982FB786FD5DC0F89490910201AF
:103790009E7F909302012FBF119A11982FB785FD3C
:1037A0005DC0F894909102019E7F909302012FBF1B
:1037B000119A11982FB784FD5DC0F8949091020181
:1037C0009E7F909302012FBF119A11982FB783FD0E
:1037D0005DC0F894909102019E7F909302012FBFEB
:1037E000119A11982FB782FD5DC0F8949091020153
:1037F0009E7F909302012FBF119A11982FB781FDE0
:103800005DC0F894909102019E7F909302012FBFBA
:10381000119A11989FB780FD5DC0F89480910201C4
:103820008E7F809302019FBF119A0895F894909122
:1038300002019160909302012FBF119A11982FB746
:1038400086FFA3CFF89490910201916090930201BA
:103850002FBF119A11982FB785FFA3CFF89490919D
:1038600002019160909302012FBF119A11982FB716
:1038700084FFA3CFF894909102019160909302018C
:103880002FBF119A11982FB783FFA3CFF89490916F
:1038900002019160909302012FBF119A11982FB7E6
:1038A00082FFA3CFF894909102019160909302015E
:1038B0002FBF119A11982FB781FFA3CFF894909141
:1038C00002019160909302012FBF119A11989FB746
:1038D00080FFA3CFF8948091020181608093020160
:1038E0009FBF119A0895209167023091680240911C
:1038F000690250916A0260E070E08FE793E40F94F0
:10390000433D60930D0D70930E0D80930F0D9093BA
:10391000100D1092090D10920A0D10920B0D1092BD
:103920000C0D08958130C1F018F0823041F10895F6
:103930005F988FB18270662359F0899A889AE3E084
:10394000F0E03197F1F78898882321F0899A08955B
:103950008998F4CF899808958A982FB1662359F0F1
:103960008F9A8E9A83E090E00197F1F78E9827FF67
:1039700004C08F9A08958F98F4CF8F9808959FB7B9
:10398000F894809108018E7F809308019FBF8091F9
:10399000090182702FB7662331F1F89490910B01E1
:1039A000926090930B012FBF2FB7F89490910B0169
:1039B000986090930B012FBFE3E0F0E03197F1F7AF
:1039C0002FB7F89490910B01977F90930B012FBF25
:1039D0009FB7882369F0F89480910B0182608093EF
:1039E0000B019FBF0895F89490910B019D7FD9CF53
:1039F000F89480910B018D7FF2CFCF93DF932FB797
:103A0000F894EC01CC0FDD1FCC0FDD1FFE01E15D52
:103A1000F24F60817181828193812FBF0F94B738FB
:103A2000CD58D24F288139814A815B810F94433D23
:103A3000DF91CF9108956F927F928F929F92AF9274
:103A4000BF92CF92DF92EF92FF920F931F93CF938B
:103A5000DF938C019B013A0163E070E00F94194001
:103A6000E901D30150E040E08417950709F04EC00A
:103A7000CA01880F991F880F991FD901A80FB91F74
:103A8000F301E80FF91F401751070CF05AC0CD9011
:103A9000DD90ED90FC90139780809180A280B380A0
:103AA0008D929D92AD92BC921397C082D182E28298
:103AB000F3821496CD90DD90ED90FC901797848062
:103AC0009580A680B78014968D929D92AD92BC92FF
:103AD0001797C482D582E682F7821896CD90DD9042
:103AE000ED90FC901B9780849184A284B3841896F7
:103AF0008D929D92AD92BC921B97C086D186E28634
:103B0000F3864D5F5F4F1C963C96BDCFC990D99010
:103B1000E990F9908D909D90AD90BD90BE0164505C
:103B20007109FB0180829182A282B382BD0164503F
:103B30007109FB01C082D182E282F3824F5F5F4F45
:103B400093CFDF91CF911F910F91FF90EF90DF9076
:103B5000CF90BF90AF909F908F907F906F9008957F
:103B60002F923F924F925F926F927F928F929F928D
:103B7000AF92BF92CF92DF92EF92FF920F931F937B
:103B8000CF93DF9300D01F92CDB7DEB71C018B011E
:103B90005A0165E070E00F9419409C838B834C01BF
:103BA0001A8309836501412C512C3201F12CE12C3F
:103BB0002B813C81E216F3060CF486C0C901880F04
:103BC000991F880F991FF801E80FF91FFA83E983FD
:103BD000A80EB91E821493040CF092C0F501208146
:103BE000318142815381E981FA81608171818281D1
:103BF00093810F9448346B017C01F5012481358158
:103C000046815781E981FA81648175818681978136
:103C10000F9448349B01AC01C701B6010F94493C95
:103C20006B017C01F5012085318542855385E98151
:103C3000FA8160857185828593850F9448349B0154
:103C4000AC01C701B6010F94493C6B017C01F50141
:103C50002485358546855785E981FA816485758592
:103C6000868597850F9448349B01AC01C701B60146
:103C70000F94493C6B017C01F5012089318942890F
:103C80005389E981FA8160897189828993890F94C6
:103C900048349B01AC01C701B6010F94493C9B011C
:103CA000AC01C301B2010F94493C2B013C01F5E08A
:103CB0008F0E911C29813A812C5E3F4F3A832983D4
:103CC00034E1A30EB11C86CFE981FA816191719133
:103CD00081919191FA83E983F6012191319141918A
:103CE00051916F010F9448349B01AC01C301B201A3
:103CF0000F94493C2B013C01FFEFEF1AFF0A58CF0C
:103D0000C301B2010F900F900F900F90DF91CF91F0
:103D10001F910F91FF90EF90DF90CF90BF90AF90E9
:103D20009F908F907F906F905F904F903F902F90DB
:103D300008958F929F92AF92BF92EF92FF920F934E
:103D40001F93CF93DF93CCE3DCE083E7E82E8DE095
:103D5000F82E0BEB16E06991799189919991F70111
:103D600081909190A190B1907F010F94B538A501F9
:103D700094010F9448340F94BC3DF8016193719302
:103D8000819391938F01FCE0CC34DF0721F7DF9121
:103D9000CF911F910F91FF90EF90BF90AF909F90A8
:103DA0008F9008954F925F926F927F928F929F9221
:103DB000AF92BF92CF92DF92EF92FF920F931F9339
:103DC000CF93DF9300D000D01F921F92CDB7DEB704
:103DD0008C0182E090E00E94FD1C69837A838B83D2
:103DE0009C8381E090E00E94FD1C6B017C0190E0CF
:103DF00080E00E94FD1C4B015C012091800230910B
:103E0000810240918202509183020F9448342B0129
:103E10003C012091840230918502409186025091AC
:103E20008702C701B6010F9448349B01AC01C3015E
:103E3000B2010F94493C2B013C0120918802309142
:103E4000890240918A0250918B0269817A818B812B
:103E50009C810F9448349B01AC01C301B2010F94C3
:103E6000493C6D837E838F83988720918C023091AB
:103E70008D0240918E0250918F02C501B4010F94C2
:103E800048342B013C0120919002309191024091E5
:103E9000920250919302C701B6010F9448349B01DE
:103EA000AC01C301B2010F94493C2B013C012091AC
:103EB0009402309195024091960250919702698147
:103EC0007A818B819C810F9448349B01AC01C301A2
:103ED000B2010F94493C2B013C01A4E7B2E02D91C3
:103EE0003D914D915C91C501B4010F9448344B0153
:103EF0005C01209178023091790240917A025091D0
:103F00007B02C701B6010F9448349B01AC01C50187
:103F1000B4010F94493C6B017C0120917C023091EB
:103F20007D0240917E0250917F0269817A818B816E
:103F30009C810F9448349B01AC01C701B6010F94DA
:103F4000493CF80160837183828393838D819E81D4
:103F5000AF81B88584839583A683B78340865186D5
:103F600062867386C80128960FB6F894DEBF0FBE2E
:103F7000CDBFDF91CF911F910F91FF90EF90DF9018
:103F8000CF90BF90AF909F908F907F906F905F90F9
:103F90004F900895CF92DF92EF92FF92C09055021A
:103FA000D0905602E0905702F09058028091780C21
:103FB000882391F120E030E0A901C701B6010F94F8
:103FC000B038882349F120E030E040E05FE3C701EA
:103FD000B6010F9448346B017C012BED3FE049E4BE
:103FE00050E40F944834A70196010F9448349B0184
:103FF000AC0160E070E080E89FE30F94433D609384
:104000005102709352028093530290935402FF9096
:10401000EF90DF90CF90089560E070E080E89FE33C
:10402000EECF5F9AE7E1FDE010828A9A11829FB796
:10403000F894A8E0B1E08C9181608C939FBF1282CC
:10404000129A0895CF92DF92EF92FF92CF93DF936F
:10405000EC01C0902D02D0902E02E0902F02F09043
:104060003002A7019601688179818A819B810F9432
:10407000A93E181624F4C882D982EA82FB82C09035
:104080003102D0903202E0903302F0903402A70166
:1040900096016C817D818E819F810F94A93E1816B7
:1040A00024F4CC82DD82EE82FF82C0903502D09073
:1040B0003602E0903702F0903802A7019601688539
:1040C00079858A859B850F94A93E181624F4C886A5
:1040D000D986EA86FB86DF91CF91FF90EF90DF9043
:1040E000CF900895E6ECF5E02491222341F0309141
:1040F000C00035FFFCCF2093C6003196F5CFFC0100
:104100002491222341F03091C00035FFFCCF209351
:10411000C6000196F4CFEEEAF5E08491882341F0E1
:104120009091C00095FFFCCF8093C6003196F5CFEB
:104130008091C00085FFFCCF8AE08093C60008957F
:1041400080E1E9E9F6E0AFE3BDE001900D928A95E8
:10415000E1F708950F931F93CF93DF9300D000D022
:10416000CDB7DEB726E0E0EEF2E0DE011196019079
:104170000D922A95E1F7FC01EE0FFF1F21E030E0E0
:104180002C0F3D1FE20FF31F608171811616170679
:104190001CF1EEE4FCE22491222341F03091C000B6
:1041A00035FFFCCF2093C6003196F5CFE7E5F5E06B
:1041B0002491222341F03091C00035FFFCCF2093A1
:1041C000C6003196F5CF2091C00025FFFCCF2AE034
:1041D0002093C6006AE070E0880F991F880F991F2E
:1041E0008C01005B1C4F072E000C880B990B0F9461
:1041F000B7389B01AC01F8016081718182819381A4
:104200000F94433D6093140270931502809316023D
:104210009093170226960FB6F894DEBF0FBECDBF5F
:10422000DF91CF911F910F910895FC0165917591D8
:10423000859194910895CF92DF92EF92FF920F9320
:104240001F93CF93DF93EC01CC0FDD1FCC0FDD1F4D
:10425000FE01E755F94FDE01A357B94F2D913D916E
:104260004D915C9160817181828193810F94493C71
:104270006B017C01CE01855B9A4F0E9415219B0149
:10428000AC018E010D5F1D4FC701B6010F94493C73
:10429000F8016083718382839383CE01815C9A4F9E
:1042A0000E9415219B01AC01C35DDD4FC701B60122
:1042B0000F94493C688379838A839B83DF91CF91F4
:1042C0001F910F91FF90EF90DF90CF9008958F9204
:1042D0009F92AF92BF92EF92FF920F931F93CF9353
:1042E000DF938C014A015B01EC01CC0FDD1FCC0F89
:1042F000DD1FCE01815C924F7C01C755D94F2881CB
:1043000039814A815B81CB01B4010F94483CF701AC
:1043100020813181428153810F94493CF7016083B0
:1043200071838283938388829982AA82BB82C80127
:10433000DF91CF911F910F91FF90EF90BF90AF90C1
:104340009F908F900C941B21089590E080E0089539
:10435000CF92DF92EF92FF920F931F93CF93DF9351
:104360006B01E9014A3009F4B1C4453109F09AC43E
:10437000DB011296ED91FC9192810680F781E02D90
:104380002FB7F894809102018260809302012FBFC1
:10439000C8E2D0E02197F1F7092F0795002707958C
:1043A000192F1295110F110F107CD92FD295DD0FF7
:1043B000D07EC92FC295C07FBF017E5F48E250E02A
:1043C00011982FB7F89480910201816080930201C7
:1043D0002FBF119A11982FB7F89480910201816034
:1043E000809302012FBF119A11982FB7F8948091F2
:1043F00002018160809302012FBF119A11982FB79B
:10440000F894809102018160809302012FBF119A7C
:1044100011982FB7F8948091020181608093020176
:104420002FBF119A11982FB7F894809102018E7FB7
:10443000809302012FBF119A11982FB7F8948091A1
:1044400002018E7F809302012FBF119A11982FB71E
:10445000F894809102018E7F809302012FBF119A00
:10446000DA011197F1F7903208F0C8C211982FB70E
:10447000F894809102018160809302012FBF119A0C
:1044800011982FB7F894809102018E7F80930201DA
:104490002FBF119A11982FB7F894809102018E7F47
:1044A000809302012FBF119A11982FB794FDBDC3BD
:1044B000F894809102018E7F809302012FBF119AA0
:1044C00011982FB7F894809102018E7F809302019A
:1044D0002FBF119A11982FB7F894809102018E7F07
:1044E000809302012FBF119A11982FB7F8948091F1
:1044F00002018E7F809302012FBF119A11982FB76E
:10450000F894809102018E7F809302012FBF119A4F
:1045100011982FB7C7FDC1C3F894809102018E7F17
:10452000809302012FBF119A11982FB7D7FDB0C306
:10453000F894809102018E7F809302012FBF119A1F
:1045400011982FB717FD9FC3F894809102018E7FB9
:10455000809302012FBF119A11982FB707FD8EC3C8
:10456000F894809102018E7F809302012FBF119AEF
:1045700011982FB7F894809102018E7F80930201E9
:104580002FBF119A11982FB7F894809102018E7F56
:10459000809302012FBF119A11982FB7F894809140
:1045A00002018E7F809302012FBF119A11982FB7BD
:1045B000F894809102018E7F809302012FBF119A9F
:1045C000DA011197F1F711982FB7F8948091020151
:1045D0008160809302012FBF119A11982FB7F89430
:1045E000809102018E7F809302012FBF119A119852
:1045F0002FB7F894809102018E7F809302012FBF24
:10460000119A11982FB7F894809102018E7F8093B0
:1046100002012FBF119A11982FB7F89480910201CF
:104620008E7F809302012FBF119A11982FB7F894B3
:10463000809102018E7F809302012FBF119A119801
:104640002FB7F894809102018E7F809302012FBFD3
:10465000119A11982FB7F894809102018E7F809360
:1046600002012FBF119A11982FB7F894809102017F
:104670008E7F809302012FBF119A11982FB7F89463
:10468000809102018E7F809302012FBF119A1198B1
:104690002FB7F894809102018E7F809302012FBF83
:1046A000119A11982FB7F894809102018E7F809310
:1046B00002012FBF119A11982FB7F894809102012F
:1046C0008E7F809302012FBF119A11982FB7F89413
:1046D000809102018E7F809302012FBF119A119861
:1046E0002FB7F894809102018E7F809302012FBF33
:1046F000119A11982FB7F894809102018E7F8093C0
:1047000002012FBF119ADA011197F1F711982FB713
:10471000F894809102018160809302012FBF119A69
:1047200011982FB7F8948091020181608093020163
:104730002FBF119A11982FB7F894809102018160D0
:10474000809302012FBF119A11982FB7F89480918E
:1047500002018160809302012FBF119A11982FB737
:10476000F894809102018160809302012FBF119A19
:1047700011982FB7F894809102018E7F80930201E7
:104780002FBF119A11982FB7F89480910201816080
:10479000809302012FBF119A11982FB7F89480913E
:1047A00002018E7F809302012FBF119ADA011197C7
:1047B000F1F79F01205F3F4FB5C0F894F0900201E0
:1047C000E894F0F8F0920201EFBE119A1198EFB65A
:1047D00086FDBBC0F894F0900201E894F0F8F092E6
:1047E0000201EFBE119A1198EFB685FDBBC0F89497
:1047F000F0900201E894F0F8F0920201EFBE119AF5
:104800001198FFB684FDBBC0F894809102018E7FA1
:1048100080930201FFBE119A1198FFB6F89480911F
:1048200002018E7F80930201FFBE119A1198FFB69C
:10483000F894809102018E7F80930201FFBE119A4D
:104840001198FFB6F894809102018E7F8093020147
:10485000FFBE119A1198FFB6F894809102018E7FE5
:1048600080930201FFBE119AF0801198EFB6F3FC1D
:104870009BC0F894809102018E7F80930201EFBE6D
:10488000119A1198EFB6F2FC8AC0F8948091020157
:104890008E7F80930201EFBE119A1198EFB6F1FC62
:1048A00079C0F894809102018E7F80930201EFBE5F
:1048B000119A1198F0FC68C0FFB6F894809102013B
:1048C0008E7F80930201FFBE119A1198FFB6F89473
:1048D000809102018E7F80930201FFBE119A119890
:1048E000FFB6F894809102018E7F80930201FFBE93
:1048F000119A1198FFB6F894809102018E7F8093EF
:104900000201FFBE119A1198FFB6F894809102013E
:104910008E7F80930201FFBE119A3196E217F30752
:1049200009F447C08081807F1198EFB687FF45CF9B
:10493000F894F09002016894F0F8F0920201EFBE52
:10494000119A1198EFB686FF45CFF894F0900201C6
:104950006894F0F8F0920201EFBE119A1198EFB648
:1049600085FF45CFF894F09002016894F0F8F0923A
:104970000201EFBE119A1198FFB684FF45CFF8945B
:1049800080910201816044CFFFB6F89480910201CA
:10499000816097CFF89480910201816086CFF8946E
:1049A00080910201816075CFF8948091020181604D
:1049B00064CFDA011197F1F79F5F0058105CD05E69
:1049C000C05F6E177F0709F0FBCC9FB7F89480910A
:1049D00002018D7F809302019FBFF601C281D381C6
:1049E000CE010F94DE1A811147C6DF91CF911F913E
:1049F0000F91FF90EF90DF90CF90089580EE890F98
:104A00008068807F11983FB7F8942091020121605F
:104A1000209302013FBF119A11983FB786FD29C12B
:104A2000F894209102012E7F209302013FBF119A3A
:104A300011983FB785FD18C1F894209102012E7F8F
:104A4000209302013FBF119A11982FB784FD07C12F
:104A5000F894809102018E7F809302012FBF119AFA
:104A600011982FB7F894809102018E7F80930201F4
:104A70002FBF119A11982FB7F894809102018E7F61
:104A8000809302012FBF119A11982FB7F89480914B
:104A900002018E7F809302012FBF119A11982FB7C8
:104AA000F894809102018E7F809302012FBF119AAA
:104AB0001198A92FA052BB0B7D01E294F29480EFD4
:104AC000F822FE24E822FE24A3FDC3C02FB7F894E9
:104AD000809102018E7F809302012FBF119A11985D
:104AE0002FB7E6FCB1C0F894809102018E7F8093CD
:104AF00002012FBF119A11982FB7E5FCA0C0F894BE
:104B0000809102018E7F809302012FBF119A11982C
:104B10002FB7E4FC8FC0F894809102018E7F8093C0
:104B200002012FBF119A11982FB7F89480910201BA
:104B30008E7F809302012FBF119A11982FB7F8949E
:104B4000809102018E7F809302012FBF119A1198EC
:104B50002FB7F894809102018E7F809302012FBFBE
:104B6000119A11982FB7F894809102018E7F80934B
:104B700002012FBF119ADA011197F1F711982FB79F
:104B8000F894809102018160809302012FBF119AF5
:104B900011982FB7F894809102018E7F80930201C3
:104BA0002FBF119A11982FB7F894809102018E7F30
:104BB000809302012FBF119A11982FB7F89480911A
:104BC00002018E7F809302012FBF119A11982FB797
:104BD000F894809102018E7F809302012FBF119A79
:104BE00011982FB7F894809102018E7F8093020173
:104BF0002FBF119A11982FB7F894809102018E7FE0
:104C0000809302012FBF119A11982FB7F8948091C9
:104C100002018E7F809302012FBF119A11982FB746
:104C2000F89480910201816024CDF8948091020172
:104C3000816042CCF89480910201816070CFF89439
:104C40008091020181605FCFF894809102018160C0
:104C50004ECF2FB7F8948091020181603CCFF89439
:104C6000809102018160F8CEF894209102012160C8
:104C7000E7CEF894209102012160D6CEF89480917D
:104C80000201816071CCF89480910201816060CC56
:104C9000F8948091020181604FCCF89480910201D8
:104CA00081603ECCDB0112960D911C91423309F4D8
:104CB00051C508F440C5463409F439C5473409F4F0
:104CC00032C54B3309F4E4C481E08FCE80910101F9
:104CD0008260809301019FB7F894809102018D7FDB
:104CE000809302019FBF8091010181608093010147
:104CF0009FB7F894809102018E7F809302019FBF3D
:104D0000099A119A9FB7F89480910201826080936A
:104D100002019FBF88E290E00197F1F788E790E0F9
:104D2000CEE9DFE0FE013197F1F70197D9F711984D
:104D30009FB7F894809102018160809302019FBF28
:104D4000119A11989FB7F894809102018160809325
:104D500002019FBF119A11989FB7F89480910201A8
:104D60008160809302019FBF119A11989FB7F894B8
:104D7000809102018160809302019FBF119A119876
:104D80009FB7F894809102018160809302019FBFD8
:104D9000119A11989FB7F894809102018E7F8093A9
:104DA00002019FBF119A11989FB7F8948091020158
:104DB0008E7F809302019FBF119A11989FB7F8943C
:104DC000809102018E7F809302019FBF119A08E2B9
:104DD00010E0C8010197F1F711989FB7F8948091FE
:104DE00002018E7F809302019FBF119A11989FB795
:104DF000F894809102018E7F809302019FBF119AE7
:104E000011989FB7F894809102018E7F80930201E0
:104E10009FBF119A11989FB7F894809102018E7FDD
:104E2000809302019FBF119A11989FB7F8948091C7
:104E300002018E7F809302019FBF119A11989FB744
:104E4000F894809102018E7F809302019FBF119A96
:104E500011989FB7F894809102018E7F8093020190
:104E60009FBF119A11989FB7F894809102018E7F8D
:104E7000809302019FBF119A11989FB7F894809177
:104E800002018160809302019FBF119A11989FB720
:104E9000F894809102018E7F809302019FBF119A46
:104EA00011989FB7F894809102018E7F8093020140
:104EB0009FBF119A11989FB7F894809102018E7F3D
:104EC000809302019FBF119A11989FB7F894809127
:104ED00002018E7F809302019FBF119A11989FB7A4
:104EE000F894809102018E7F809302019FBF119AF6
:104EF00011989FB7F894809102018E7F80930201F0
:104F00009FBF119A11989FB7F894809102018E7FEC
:104F1000809302019FBF119AC8010197F1F7119880
:104F20009FB7F894809102018E7F809302019FBF0A
:104F3000119A11989FB7F894809102018E7F809307
:104F400002019FBF119A11989FB7F89480910201B6
:104F50008E7F809302019FBF119A11989FB7F8949A
:104F6000809102018E7F809302019FBF119A119858
:104F70009FB7F894809102018E7F809302019FBFBA
:104F8000119A11989FB7F894809102018E7F8093B7
:104F900002019FBF119A11989FB7F8948091020166
:104FA0008E7F809302019FBF119A11989FB7F8944A
:104FB000809102018E7F809302019FBF119A80E150
:104FC0000E94B51BC8010197F1F7CE010197F1F7D7
:104FD000CE010197F1F7CE010197F1F7CE010197CC
:104FE000F1F7CE010197F1F7CE010197F1F7CE016C
:104FF0000197F1F7CE010197F1F7CE010197F1F793
:10500000CE010197F1F7CE010197F1F7CE0101979B
:10501000F1F7CE010197F1F7CE010197F1F7219752
:10502000F1F780E30E94B51B80EE0E94B51BC8011A
:105030000197F1F730E040E050E020E0C8E2D0E036
:1050400011989FB7F89480910201816080930201CA
:105050009FBF119A11989FB7F894809102018E7F9B
:10506000809302019FBF119A11989FB7F894809185
:1050700002018E7F809302019FBF119A11989FB702
:1050800024FDF5C2F894809102018E7F8093020185
:105090009FBF119A11989FB7F894809102018E7F5B
:1050A000809302019FBF119A11989FB7F894809145
:1050B00002018E7F809302019FBF119A11989FB7C2
:1050C000F894809102018E7F809302019FBF119A14
:1050D00011989FB7F894809102018E7F809302010E
:1050E0009FBF119A11989FB737FDBCC2F894809169
:1050F00002018E7F809302019FBF119A11989FB782
:1051000036FDABC2F894809102018E7F809302013C
:105110009FBF119A11989FB747FD9AC2F89480914A
:1051200002018E7F809302019FBF119A11989FB751
:1051300057FD89C2F894809102018E7F809302010D
:105140009FBF119A11989FB7F894809102018E7FAA
:10515000809302019FBF119A11989FB7F894809194
:1051600002018E7F809302019FBF119A11989FB711
:10517000F894809102018E7F809302019FBF119A63
:1051800011989FB7F894809102018E7F809302015D
:105190009FBF119ACE010197F1F711989FB7F8942C
:1051A000809102018160809302019FBF119A119842
:1051B0009FB7F894809102018E7F809302019FBF78
:1051C000119A11989FB7F894809102018E7F809375
:1051D00002019FBF119A11989FB7F8948091020124
:1051E0008E7F809302019FBF119A11989FB7F89408
:1051F000809102018E7F809302019FBF119A1198C6
:105200009FB7F894809102018E7F809302019FBF27
:10521000119A11989FB7F894809102018E7F809324
:1052200002019FBF119A11989FB7F89480910201D3
:105230008E7F809302019FBF119A11989FB7F894B7
:10524000809102018E7F809302019FBF119A119875
:105250009FB7F894809102018E7F809302019FBFD7
:10526000119A11989FB7F894809102018E7F8093D4
:1052700002019FBF119A11989FB7F8948091020183
:105280008E7F809302019FBF119A11989FB7F89467
:10529000809102018E7F809302019FBF119A119825
:1052A0009FB7F894809102018E7F809302019FBF87
:1052B000119A11989FB7F894809102018E7F809384
:1052C00002019FBF119A11989FB7F8948091020133
:1052D0008E7F809302019FBF119ACE010197F1F753
:1052E00011989FB7F8948091020181608093020128
:1052F0009FBF119A11989FB7F89480910201816025
:10530000809302019FBF119A11989FB7F8948091E2
:1053100002018160809302019FBF119A11989FB78B
:10532000F894809102018160809302019FBF119ADD
:1053300011989FB7F89480910201816080930201D7
:105340009FBF119A11989FB7F894809102018E7FA8
:10535000809302019FBF119A11989FB7F894809192
:1053600002018160809302019FBF119A11989FB73B
:10537000F894809102018E7F809302019FBF119A61
:10538000CE010197F1F790E211986FB7F8948091F0
:1053900002018E7F809302016FBF119A11986FB73F
:1053A000F894809102018E7F809302016FBF119A61
:1053B00011986FB7F894809102018E7F809302015B
:1053C0006FBF119A11986FB7F894809102018E7F88
:1053D000809302016FBF119A11986FB7F894809172
:1053E00002018E7F809302016FBF119A11986FB7EF
:1053F000F894809102018E7F809302016FBF119A11
:1054000011986FB7F894809102018E7F809302010A
:105410006FBF119A11986FB7F894809102018E7F37
:10542000809302016FBF119A11986FB7F894809121
:1054300002018E7F809302016FBF119A11986FB79E
:10544000F894809102018E7F809302016FBF119AC0
:1054500011986FB7F894809102018E7F80930201BA
:105460006FBF119A11986FB7F894809102018E7FE7
:10547000809302016FBF119A11986FB7F8948091D1
:1054800002018E7F809302016FBF119A11986FB74E
:10549000F894809102018E7F809302016FBF119A70
:1054A00011986FB7F894809102018E7F809302016A
:1054B0006FBF119A11986FB7F894809102018E7F97
:1054C000809302016FBF119AFE013197F1F791505D
:1054D00009F05ACF11989FB7F8948091020181602A
:1054E000809302019FBF119A11989FB7F894809101
:1054F00002018160809302019FBF119A11989FB7AA
:10550000F894809102018160809302019FBF119AFB
:1055100011989FB7F89480910201816080930201F5
:105520009FBF119A11989FB7F894809102018160F2
:10553000809302019FBF119A11989FB7F8948091B0
:1055400002018E7F809302019FBF119A11989FB72D
:10555000F894809102018E7F809302019FBF119A7F
:1055600011989FB7F894809102018E7F8093020179
:105570009FBF119ACE010197F1F72F5F5058405C01
:10558000305F203209F05CCD11989FB7F89480917C
:1055900002018E7F809302019FBF119A11989FB7DD
:1055A000F894809102018E7F809302019FBF119A2F
:1055B00011989FB7F894809102018E7F8093020129
:1055C0009FBF119A11989FB7F894809102018E7F26
:1055D000809302019FBF119A11989FB7F894809110
:1055E00002018E7F809302019FBF119A11989FB78D
:1055F000F894809102018E7F809302019FBF119ADF
:1056000011989FB7F894809102018E7F80930201D8
:105610009FBF119A11989FB7F894809102018E7FD5
:10562000809302019FBF119A80EC0E94B51B2197C5
:10563000F1F79FB7F894809102018D7F809302016A
:105640009FBF81E0D2C9F89480910201816076CD3C
:10565000F89480910201816065CDF89480910201F7
:10566000816054CDF89480910201816043CDF8941B
:105670008091020181600ACD4D81B4E04B9FA00171
:10568000112470E060E08E819F810F94AB401CCBB1
:1056900089812B81F80162819381213009F43FC017
:1056A0002330C1F438EF380F582F41E0931708F436
:1056B00040E091E0531708F090E031E0561708F40D
:1056C00030E0592F542B352319F4942309F4FCCAE4
:1056D000FA800BC0981708F4F7CA861708F4F4CAC2
:1056E000FA80E12CD12C243090F430E0F901EC590F
:1056F000FC4FD080205A3C4FD901EC9008C09881D3
:105700009D0D98838E0D8983FF0C09F4DDCAF7FE89
:10571000F6CFBE01C8010F94C81A8981F0CF58E0B6
:10572000580F382FC2CFF80181818883CDCAD801A4
:1057300015968C91FACF443191F0473109F0C4CAE3
:105740001882F80182818983858181508A838381CF
:105750008B83BACAB901C8010F94C81AB5CAF80137
:105760004581F4E04F9FA001112470E060E0D80172
:1057700016968D919C910F94AB40C8010F94F41A2A
:10578000A3CADF92EF92FF920F931F93CF93DF9301
:10579000EC01D62E1CAD0BAD7C0184E0E80EF11CB3
:1057A000E98DFA8DC7011995412F480F2D2D602FD6
:1057B000C7010F943E249BAD890F8BAF81E090E031
:1057C000DF91CF911F910F91FF90EF90DF9008959F
:1057D0000F9465186093170C7093180C8093190C34
:1057E00090931A0C08958091710580936D028091B9
:1057F000670590916805A0916905B0916A0580934D
:10580000140290931502A0931602B0931702809190
:1058100065059091660590932B0280932A020C9463
:10582000E82B8091140290911502A0911602B0917C
:1058300017028093670590936805A0936905B0935C
:105840006A0580912A0290912B02909366058093BD
:10585000650584E690E090932B0280932A020E94D3
:10586000E82B81E080936D020895FC0124912223AE
:1058700041F03091C00035FFFCCF2093C600019667
:10588000F4CF072E000C880B990B0D9435108F92D6
:105890009F92AF92BF92CF92DF92EF92FF92ECE78E
:1058A000F9E08491882341F09091C00095FFFCCFEE
:1058B0008093C6003196F5CF60913F0D7091400DF9
:1058C0008091410D9091420D42E00F945D10E8E708
:1058D000F9E08491882341F09091C00095FFFCCFBE
:1058E0008093C6003196F5CF6091430D7091440DC1
:1058F0008091450D9091460D42E00F945D10E4E7D4
:10590000F9E08491882341F09091C00095FFFCCF8D
:105910008093C6003196F5CF6091470D7091480D88
:105920008091490D90914A0D42E00F945D10E0E79F
:10593000F9E08491882341F09091C00095FFFCCF5D
:105940008093C6003196F5CF60914B0D70914C0D50
:1059500080914D0D90914E0D42E00F945D102FB748
:10596000F89460912F0D7091300D8091310D9091D0
:10597000320D8090330D9090340DA090350DB09085
:10598000360DC090370DD090380DE090390DF09065
:105990003A0D2FBFE5E6F9E02491222341F0309142
:1059A000C00035FFFCCF2093C6003196F5CF0F9491
:1059B0003510E1E6F9E08491882341F09091C00030
:1059C00095FFFCCF8093C6003196F5CFC501B40199
:1059D0000F943510EDE5F9E08491882341F0909122
:1059E000C00095FFFCCF8093C6003196F5CFC7016C
:1059F000B6010F9435108091C00085FFFCCF8AE07E
:105A00008093C600FF90EF90DF90CF90BF90AF9053
:105A10009F908F900895E0E2F9E08491882341F00F
:105A20009091C00095FFFCCF8093C6003196F5CFD2
:105A3000E091720584E0E89FF0011124EC5FF34FE0
:105A4000608171818281938141E00F945D10EDE16D
:105A5000F9E08491882341F09091C00095FFFCCF3C
:105A60008093C6003196F5CFE0917205F0E0EE0F1D
:105A7000FF1FE05EF34F60817181072E000C880BE1
:105A8000990B0F94B73841E00F945D10E9E1F9E00C
:105A90008491882341F09091C00095FFFCCF8093C2
:105AA000C6003196F5CF6091EF0B7091F00B8091AD
:105AB000F10B9091F20B41E00F945D10E6E1F9E0FB
:105AC0008491882341F09091C00095FFFCCF809392
:105AD000C6003196F5CF60911E0C70911F0C072EF9
